{
  "_format": "hh-sol-artifact-1",
  "contractName": "LuxiumToken",
  "sourceName": "contracts/LuxiumToken.sol",
  "abi": [
    {
      "anonymous": false,
      "inputs": [
        {
          "indexed": true,
          "internalType": "address",
          "name": "owner",
          "type": "address"
        },
        {
          "indexed": true,
          "internalType": "address",
          "name": "spender",
          "type": "address"
        },
        {
          "indexed": false,
          "internalType": "uint256",
          "name": "value",
          "type": "uint256"
        }
      ],
      "name": "Approval",
      "type": "event"
    },
    {
      "anonymous": false,
      "inputs": [
        {
          "indexed": false,
          "internalType": "uint8",
          "name": "version",
          "type": "uint8"
        }
      ],
      "name": "Initialized",
      "type": "event"
    },
    {
      "anonymous": false,
      "inputs": [
        {
          "indexed": true,
          "internalType": "address",
          "name": "from",
          "type": "address"
        },
        {
          "indexed": true,
          "internalType": "address",
          "name": "to",
          "type": "address"
        },
        {
          "indexed": false,
          "internalType": "uint256",
          "name": "value",
          "type": "uint256"
        }
      ],
      "name": "Transfer",
      "type": "event"
    },
    {
      "inputs": [],
      "name": "FibonacciFloorManager",
      "outputs": [
        {
          "internalType": "address",
          "name": "",
          "type": "address"
        }
      ],
      "stateMutability": "view",
      "type": "function"
    },
    {
      "inputs": [],
      "name": "ThriveFlowGuard",
      "outputs": [
        {
          "internalType": "address",
          "name": "",
          "type": "address"
        }
      ],
      "stateMutability": "view",
      "type": "function"
    },
    {
      "inputs": [
        {
          "internalType": "address",
          "name": "owner",
          "type": "address"
        },
        {
          "internalType": "address",
          "name": "spender",
          "type": "address"
        }
      ],
      "name": "allowance",
      "outputs": [
        {
          "internalType": "uint256",
          "name": "",
          "type": "uint256"
        }
      ],
      "stateMutability": "view",
      "type": "function"
    },
    {
      "inputs": [
        {
          "internalType": "address",
          "name": "spender",
          "type": "address"
        },
        {
          "internalType": "uint256",
          "name": "amount",
          "type": "uint256"
        }
      ],
      "name": "approve",
      "outputs": [
        {
          "internalType": "bool",
          "name": "",
          "type": "bool"
        }
      ],
      "stateMutability": "nonpayable",
      "type": "function"
    },
    {
      "inputs": [
        {
          "internalType": "address",
          "name": "account",
          "type": "address"
        }
      ],
      "name": "balanceOf",
      "outputs": [
        {
          "internalType": "uint256",
          "name": "",
          "type": "uint256"
        }
      ],
      "stateMutability": "view",
      "type": "function"
    },
    {
      "inputs": [],
      "name": "decimals",
      "outputs": [
        {
          "internalType": "uint8",
          "name": "",
          "type": "uint8"
        }
      ],
      "stateMutability": "view",
      "type": "function"
    },
    {
      "inputs": [
        {
          "internalType": "address",
          "name": "spender",
          "type": "address"
        },
        {
          "internalType": "uint256",
          "name": "subtractedValue",
          "type": "uint256"
        }
      ],
      "name": "decreaseAllowance",
      "outputs": [
        {
          "internalType": "bool",
          "name": "",
          "type": "bool"
        }
      ],
      "stateMutability": "nonpayable",
      "type": "function"
    },
    {
      "inputs": [
        {
          "internalType": "address",
          "name": "spender",
          "type": "address"
        },
        {
          "internalType": "uint256",
          "name": "addedValue",
          "type": "uint256"
        }
      ],
      "name": "increaseAllowance",
      "outputs": [
        {
          "internalType": "bool",
          "name": "",
          "type": "bool"
        }
      ],
      "stateMutability": "nonpayable",
      "type": "function"
    },
    {
      "inputs": [
        {
          "internalType": "address",
          "name": "_FibonacciFloorManager",
          "type": "address"
        },
        {
          "internalType": "address",
          "name": "_reserve",
          "type": "address"
        },
        {
          "internalType": "address",
          "name": "_ThriveFlowGuard",
          "type": "address"
        }
      ],
      "name": "initialize",
      "outputs": [],
      "stateMutability": "nonpayable",
      "type": "function"
    },
    {
      "inputs": [],
      "name": "name",
      "outputs": [
        {
          "internalType": "string",
          "name": "",
          "type": "string"
        }
      ],
      "stateMutability": "view",
      "type": "function"
    },
    {
      "inputs": [],
      "name": "reserve",
      "outputs": [
        {
          "internalType": "address",
          "name": "",
          "type": "address"
        }
      ],
      "stateMutability": "view",
      "type": "function"
    },
    {
      "inputs": [],
      "name": "symbol",
      "outputs": [
        {
          "internalType": "string",
          "name": "",
          "type": "string"
        }
      ],
      "stateMutability": "view",
      "type": "function"
    },
    {
      "inputs": [],
      "name": "totalSupply",
      "outputs": [
        {
          "internalType": "uint256",
          "name": "",
          "type": "uint256"
        }
      ],
      "stateMutability": "view",
      "type": "function"
    },
    {
      "inputs": [
        {
          "internalType": "address",
          "name": "to",
          "type": "address"
        },
        {
          "internalType": "uint256",
          "name": "amount",
          "type": "uint256"
        }
      ],
      "name": "transfer",
      "outputs": [
        {
          "internalType": "bool",
          "name": "",
          "type": "bool"
        }
      ],
      "stateMutability": "nonpayable",
      "type": "function"
    },
    {
      "inputs": [
        {
          "internalType": "address",
          "name": "from",
          "type": "address"
        },
        {
          "internalType": "address",
          "name": "to",
          "type": "address"
        },
        {
          "internalType": "uint256",
          "name": "amount",
          "type": "uint256"
        }
      ],
      "name": "transferFrom",
      "outputs": [
        {
          "internalType": "bool",
          "name": "",
          "type": "bool"
        }
      ],
      "stateMutability": "nonpayable",
      "type": "function"
    }
  ],
  "bytecode": "0x608060405234801561001057600080fd5b50611f1c806100206000396000f3fe608060405234801561001057600080fd5b50600436106100f55760003560e01c806370a0823111610097578063c0c53b8b11610066578063c0c53b8b146102b0578063cd3293de146102cc578063dd62ed3e146102ea578063fd2ec7fc1461031a576100f5565b806370a082311461020257806395d89b4114610232578063a457c2d714610250578063a9059cbb14610280576100f5565b806318160ddd116100d357806318160ddd1461016657806323b872dd14610184578063313ce567146101b457806339509351146101d2576100f5565b806306fdde03146100fa578063095ea7b3146101185780630e0043cb14610148575b600080fd5b610102610338565b60405161010f9190611129565b60405180910390f35b610132600480360381019061012d91906111e4565b6103ca565b60405161013f919061123f565b60405180910390f35b6101506103ed565b60405161015d9190611269565b60405180910390f35b61016e610413565b60405161017b9190611293565b60405180910390f35b61019e600480360381019061019991906112ae565b61041d565b6040516101ab919061123f565b60405180910390f35b6101bc61044c565b6040516101c9919061131d565b60405180910390f35b6101ec60048036038101906101e791906111e4565b610455565b6040516101f9919061123f565b60405180910390f35b61021c60048036038101906102179190611338565b61048c565b6040516102299190611293565b60405180910390f35b61023a6104d5565b6040516102479190611129565b60405180910390f35b61026a600480360381019061026591906111e4565b610567565b604051610277919061123f565b60405180910390f35b61029a600480360381019061029591906111e4565b6105de565b6040516102a7919061123f565b60405180910390f35b6102ca60048036038101906102c59190611365565b610601565b005b6102d461089c565b6040516102e19190611269565b60405180910390f35b61030460048036038101906102ff91906113b8565b6108c2565b6040516103119190611293565b60405180910390f35b610322610949565b60405161032f9190611269565b60405180910390f35b60606036805461034790611427565b80601f016020809104026020016040519081016040528092919081815260200182805461037390611427565b80156103c05780601f10610395576101008083540402835291602001916103c0565b820191906000526020600020905b8154815290600101906020018083116103a357829003601f168201915b5050505050905090565b6000806103d561096f565b90506103e2818585610977565b600191505092915050565b606760009054906101000a900473ffffffffffffffffffffffffffffffffffffffff1681565b6000603554905090565b60008061042861096f565b9050610435858285610b40565b610440858585610bcc565b60019150509392505050565b60006012905090565b60008061046061096f565b905061048181858561047285896108c2565b61047c9190611487565b610977565b600191505092915050565b6000603360008373ffffffffffffffffffffffffffffffffffffffff1673ffffffffffffffffffffffffffffffffffffffff168152602001908152602001600020549050919050565b6060603780546104e490611427565b80601f016020809104026020016040519081016040528092919081815260200182805461051090611427565b801561055d5780601f106105325761010080835404028352916020019161055d565b820191906000526020600020905b81548152906001019060200180831161054057829003601f168201915b5050505050905090565b60008061057261096f565b9050600061058082866108c2565b9050838110156105c5576040517f08c379a00000000000000000000000000000000000000000000000000000000081526004016105bc9061152d565b60405180910390fd5b6105d28286868403610977565b60019250505092915050565b6000806105e961096f565b90506105f6818585610bcc565b600191505092915050565b60008060019054906101000a900460ff161590508080156106325750600160008054906101000a900460ff1660ff16105b8061065f575061064130610e45565b15801561065e5750600160008054906101000a900460ff1660ff16145b5b61069e576040517f08c379a0000000000000000000000000000000000000000000000000000000008152600401610695906115bf565b60405180910390fd5b60016000806101000a81548160ff021916908360ff16021790555080156106db576001600060016101000a81548160ff0219169083151502179055505b61074f6040518060400160405280600681526020017f4c757869756d00000000000000000000000000000000000000000000000000008152506040518060400160405280600381526020017f4c55580000000000000000000000000000000000000000000000000000000000815250610e68565b83606560006101000a81548173ffffffffffffffffffffffffffffffffffffffff021916908373ffffffffffffffffffffffffffffffffffffffff16021790555082606660006101000a81548173ffffffffffffffffffffffffffffffffffffffff021916908373ffffffffffffffffffffffffffffffffffffffff16021790555081606760006101000a81548173ffffffffffffffffffffffffffffffffffffffff021916908373ffffffffffffffffffffffffffffffffffffffff16021790555061083d3361081e61044c565b600a61082a9190611712565b620f4240610838919061175d565b610ec5565b80156108965760008060016101000a81548160ff0219169083151502179055507f7f26b83ff96e1f2b6a682f133852f6798a09c465da95921460cefb3847402498600160405161088d91906117e4565b60405180910390a15b50505050565b606660009054906101000a900473ffffffffffffffffffffffffffffffffffffffff1681565b6000603460008473ffffffffffffffffffffffffffffffffffffffff1673ffffffffffffffffffffffffffffffffffffffff16815260200190815260200160002060008373ffffffffffffffffffffffffffffffffffffffff1673ffffffffffffffffffffffffffffffffffffffff16815260200190815260200160002054905092915050565b606560009054906101000a900473ffffffffffffffffffffffffffffffffffffffff1681565b600033905090565b600073ffffffffffffffffffffffffffffffffffffffff168373ffffffffffffffffffffffffffffffffffffffff16036109e6576040517f08c379a00000000000000000000000000000000000000000000000000000000081526004016109dd90611871565b60405180910390fd5b600073ffffffffffffffffffffffffffffffffffffffff168273ffffffffffffffffffffffffffffffffffffffff1603610a55576040517f08c379a0000000000000000000000000000000000000000000000000000000008152600401610a4c90611903565b60405180910390fd5b80603460008573ffffffffffffffffffffffffffffffffffffffff1673ffffffffffffffffffffffffffffffffffffffff16815260200190815260200160002060008473ffffffffffffffffffffffffffffffffffffffff1673ffffffffffffffffffffffffffffffffffffffff168152602001908152602001600020819055508173ffffffffffffffffffffffffffffffffffffffff168373ffffffffffffffffffffffffffffffffffffffff167f8c5be1e5ebec7d5bd14f71427d1e84f3dd0314c0f7b2291e5b200ac8c7c3b92583604051610b339190611293565b60405180910390a3505050565b6000610b4c84846108c2565b90507fffffffffffffffffffffffffffffffffffffffffffffffffffffffffffffffff8114610bc65781811015610bb8576040517f08c379a0000000000000000000000000000000000000000000000000000000008152600401610baf9061196f565b60405180910390fd5b610bc58484848403610977565b5b50505050565b600073ffffffffffffffffffffffffffffffffffffffff168373ffffffffffffffffffffffffffffffffffffffff1603610c3b576040517f08c379a0000000000000000000000000000000000000000000000000000000008152600401610c3290611a01565b60405180910390fd5b600073ffffffffffffffffffffffffffffffffffffffff168273ffffffffffffffffffffffffffffffffffffffff1603610caa576040517f08c379a0000000000000000000000000000000000000000000000000000000008152600401610ca190611a93565b60405180910390fd5b610cb583838361101c565b6000603360008573ffffffffffffffffffffffffffffffffffffffff1673ffffffffffffffffffffffffffffffffffffffff16815260200190815260200160002054905081811015610d3c576040517f08c379a0000000000000000000000000000000000000000000000000000000008152600401610d3390611b25565b60405180910390fd5b818103603360008673ffffffffffffffffffffffffffffffffffffffff1673ffffffffffffffffffffffffffffffffffffffff1681526020019081526020016000208190555081603360008573ffffffffffffffffffffffffffffffffffffffff1673ffffffffffffffffffffffffffffffffffffffff168152602001908152602001600020600082825401925050819055508273ffffffffffffffffffffffffffffffffffffffff168473ffffffffffffffffffffffffffffffffffffffff167fddf252ad1be2c89b69c2b068fc378daa952ba7f163c4a11628f55a4df523b3ef84604051610e2c9190611293565b60405180910390a3610e3f848484611021565b50505050565b6000808273ffffffffffffffffffffffffffffffffffffffff163b119050919050565b600060019054906101000a900460ff16610eb7576040517f08c379a0000000000000000000000000000000000000000000000000000000008152600401610eae90611bb7565b60405180910390fd5b610ec18282611026565b5050565b600073ffffffffffffffffffffffffffffffffffffffff168273ffffffffffffffffffffffffffffffffffffffff1603610f34576040517f08c379a0000000000000000000000000000000000000000000000000000000008152600401610f2b90611c23565b60405180910390fd5b610f406000838361101c565b8060356000828254610f529190611487565b9250508190555080603360008473ffffffffffffffffffffffffffffffffffffffff1673ffffffffffffffffffffffffffffffffffffffff168152602001908152602001600020600082825401925050819055508173ffffffffffffffffffffffffffffffffffffffff16600073ffffffffffffffffffffffffffffffffffffffff167fddf252ad1be2c89b69c2b068fc378daa952ba7f163c4a11628f55a4df523b3ef836040516110049190611293565b60405180910390a361101860008383611021565b5050565b505050565b505050565b600060019054906101000a900460ff16611075576040517f08c379a000000000000000000000000000000000000000000000000000000000815260040161106c90611bb7565b60405180910390fd5b81603690816110849190611e14565b5080603790816110949190611e14565b505050565b600081519050919050565b600082825260208201905092915050565b60005b838110156110d35780820151818401526020810190506110b8565b60008484015250505050565b6000601f19601f8301169050919050565b60006110fb82611099565b61110581856110a4565b93506111158185602086016110b5565b61111e816110df565b840191505092915050565b6000602082019050818103600083015261114381846110f0565b905092915050565b600080fd5b600073ffffffffffffffffffffffffffffffffffffffff82169050919050565b600061117b82611150565b9050919050565b61118b81611170565b811461119657600080fd5b50565b6000813590506111a881611182565b92915050565b6000819050919050565b6111c1816111ae565b81146111cc57600080fd5b50565b6000813590506111de816111b8565b92915050565b600080604083850312156111fb576111fa61114b565b5b600061120985828601611199565b925050602061121a858286016111cf565b9150509250929050565b60008115159050919050565b61123981611224565b82525050565b60006020820190506112546000830184611230565b92915050565b61126381611170565b82525050565b600060208201905061127e600083018461125a565b92915050565b61128d816111ae565b82525050565b60006020820190506112a86000830184611284565b92915050565b6000806000606084860312156112c7576112c661114b565b5b60006112d586828701611199565b93505060206112e686828701611199565b92505060406112f7868287016111cf565b9150509250925092565b600060ff82169050919050565b61131781611301565b82525050565b6000602082019050611332600083018461130e565b92915050565b60006020828403121561134e5761134d61114b565b5b600061135c84828501611199565b91505092915050565b60008060006060848603121561137e5761137d61114b565b5b600061138c86828701611199565b935050602061139d86828701611199565b92505060406113ae86828701611199565b9150509250925092565b600080604083850312156113cf576113ce61114b565b5b60006113dd85828601611199565b92505060206113ee85828601611199565b9150509250929050565b7f4e487b7100000000000000000000000000000000000000000000000000000000600052602260045260246000fd5b6000600282049050600182168061143f57607f821691505b602082108103611452576114516113f8565b5b50919050565b7f4e487b7100000000000000000000000000000000000000000000000000000000600052601160045260246000fd5b6000611492826111ae565b915061149d836111ae565b92508282019050808211156114b5576114b4611458565b5b92915050565b7f45524332303a2064656372656173656420616c6c6f77616e63652062656c6f7760008201527f207a65726f000000000000000000000000000000000000000000000000000000602082015250565b60006115176025836110a4565b9150611522826114bb565b604082019050919050565b600060208201905081810360008301526115468161150a565b9050919050565b7f496e697469616c697a61626c653a20636f6e747261637420697320616c72656160008201527f647920696e697469616c697a6564000000000000000000000000000000000000602082015250565b60006115a9602e836110a4565b91506115b48261154d565b604082019050919050565b600060208201905081810360008301526115d88161159c565b9050919050565b60008160011c9050919050565b6000808291508390505b60018511156116365780860481111561161257611611611458565b5b60018516156116215780820291505b808102905061162f856115df565b94506115f6565b94509492505050565b60008261164f576001905061170b565b8161165d576000905061170b565b8160018114611673576002811461167d576116ac565b600191505061170b565b60ff84111561168f5761168e611458565b5b8360020a9150848211156116a6576116a5611458565b5b5061170b565b5060208310610133831016604e8410600b84101617156116e15782820a9050838111156116dc576116db611458565b5b61170b565b6116ee84848460016115ec565b9250905081840481111561170557611704611458565b5b81810290505b9392505050565b600061171d826111ae565b915061172883611301565b92506117557fffffffffffffffffffffffffffffffffffffffffffffffffffffffffffffffff848461163f565b905092915050565b6000611768826111ae565b9150611773836111ae565b9250828202611781816111ae565b9150828204841483151761179857611797611458565b5b5092915050565b6000819050919050565b6000819050919050565b60006117ce6117c96117c48461179f565b6117a9565b611301565b9050919050565b6117de816117b3565b82525050565b60006020820190506117f960008301846117d5565b92915050565b7f45524332303a20617070726f76652066726f6d20746865207a65726f2061646460008201527f7265737300000000000000000000000000000000000000000000000000000000602082015250565b600061185b6024836110a4565b9150611866826117ff565b604082019050919050565b6000602082019050818103600083015261188a8161184e565b9050919050565b7f45524332303a20617070726f766520746f20746865207a65726f20616464726560008201527f7373000000000000000000000000000000000000000000000000000000000000602082015250565b60006118ed6022836110a4565b91506118f882611891565b604082019050919050565b6000602082019050818103600083015261191c816118e0565b9050919050565b7f45524332303a20696e73756666696369656e7420616c6c6f77616e6365000000600082015250565b6000611959601d836110a4565b915061196482611923565b602082019050919050565b600060208201905081810360008301526119888161194c565b9050919050565b7f45524332303a207472616e736665722066726f6d20746865207a65726f20616460008201527f6472657373000000000000000000000000000000000000000000000000000000602082015250565b60006119eb6025836110a4565b91506119f68261198f565b604082019050919050565b60006020820190508181036000830152611a1a816119de565b9050919050565b7f45524332303a207472616e7366657220746f20746865207a65726f206164647260008201527f6573730000000000000000000000000000000000000000000000000000000000602082015250565b6000611a7d6023836110a4565b9150611a8882611a21565b604082019050919050565b60006020820190508181036000830152611aac81611a70565b9050919050565b7f45524332303a207472616e7366657220616d6f756e742065786365656473206260008201527f616c616e63650000000000000000000000000000000000000000000000000000602082015250565b6000611b0f6026836110a4565b9150611b1a82611ab3565b604082019050919050565b60006020820190508181036000830152611b3e81611b02565b9050919050565b7f496e697469616c697a61626c653a20636f6e7472616374206973206e6f74206960008201527f6e697469616c697a696e67000000000000000000000000000000000000000000602082015250565b6000611ba1602b836110a4565b9150611bac82611b45565b604082019050919050565b60006020820190508181036000830152611bd081611b94565b9050919050565b7f45524332303a206d696e7420746f20746865207a65726f206164647265737300600082015250565b6000611c0d601f836110a4565b9150611c1882611bd7565b602082019050919050565b60006020820190508181036000830152611c3c81611c00565b9050919050565b7f4e487b7100000000000000000000000000000000000000000000000000000000600052604160045260246000fd5b60008190508160005260206000209050919050565b60006020601f8301049050919050565b600082821b905092915050565b600060088302611cd47fffffffffffffffffffffffffffffffffffffffffffffffffffffffffffffffff82611c97565b611cde8683611c97565b95508019841693508086168417925050509392505050565b6000611d11611d0c611d07846111ae565b6117a9565b6111ae565b9050919050565b6000819050919050565b611d2b83611cf6565b611d3f611d3782611d18565b848454611ca4565b825550505050565b600090565b611d54611d47565b611d5f818484611d22565b505050565b5b81811015611d8357611d78600082611d4c565b600181019050611d65565b5050565b601f821115611dc857611d9981611c72565b611da284611c87565b81016020851015611db1578190505b611dc5611dbd85611c87565b830182611d64565b50505b505050565b600082821c905092915050565b6000611deb60001984600802611dcd565b1980831691505092915050565b6000611e048383611dda565b9150826002028217905092915050565b611e1d82611099565b67ffffffffffffffff811115611e3657611e35611c43565b5b611e408254611427565b611e4b828285611d87565b600060209050601f831160018114611e7e5760008415611e6c578287015190505b611e768582611df8565b865550611ede565b601f198416611e8c86611c72565b60005b82811015611eb457848901518255600182019150602085019450602081019050611e8f565b86831015611ed15784890151611ecd601f891682611dda565b8355505b6001600288020188555050505b50505050505056fea2646970667358221220320140db9305011d812f9008758b746df23f4f35da9895f2b7593e9d987a771c64736f6c63430008140033",
  "linkReferences": {},
  "deployedLinkReferences": {}
}